:020000040800F2
:10000000201A002001010008090100080B01000866
:100010000D0100080F010008110100080000000098
:1000200000000000000000000000000013010008B4
:100030001501000800000000170100081901000860
:100040001B0100081B0100081B0100081B01000820
:100050001B0100081B0100081B0100081B01000810
:100060001B0100081B0100081B0100081B01000800
:100070001B0100081B0100081B0100081B010008F0
:100080001B0100081B0100081B0100081B010008E0
:100090001B0100081B0100081B0100087B21000850
:1000A0001B010008092000081B0100081B010008B3
:1000B0001B0100081B010008851F00081B01000828
:1000C0001B0100081B0100081B0100081B010008A0
:1000D0001B010008E50B00087D1C0008E11D00085D
:1000E0001B0100081B0100081B010008DFF80CD0F1
:1000F00004F008FE00480047EF070008201A00201F
:100100000648804706480047FEE7FEE7FEE7FEE7B1
:10011000FEE7FEE7FEE7FEE7FEE7FEE7AB47000887
:10012000ED00000808B50121082003F059F94FF44B
:100130008150ADF8000010208DF8030003208DF8E9
:1001400002006946FE4802F08FFE4FF48151FC48E0
:1001500002F039FF08BD10B526220021202002F050
:10016000B0FB27220021302002F0ABFB202200212F
:10017000402002F0A6FB21220021502002F0A1FB2A
:10018000BBE002F0C6F8642000F099FCED48EE49AF
:100190000978405C0028F3DBEA48EB490978405CC9
:1001A0000A28EDDAE748E8490978405C3030E74949
:1001B000E74A12788854E6480078401CE449087001
:1001C00008460078E349087009E02020DF49E14A49
:1001D00012788854DF480078401CDE490870DD48FA
:1001E00000780628F1DB1023D84A0221282002F0EB
:1001F0004BFBD748007806287CD10120D6490870EF
:100200000020D449087012E0D448D2490978415CF2
:10021000CE48D04A1278805C3038814202D000202B
:10022000CD490870CB480078401CCA490870C948BD
:1002300000780628E8DBC8480078F0B120220421C5
:10024000104602F03EFB21220421302002F039FB4F
:1002500024220421402002F034FB252204215020D6
:1002600002F02FFB40F6B83000F029FC1023BCA2AE
:100270000421202002F008FB20E020220421104667
:1002800002F01FFB21220421302002F01AFB1E2263
:100290000421402002F015FB1F220421502002F00F
:1002A00010FB40F6B83000F00AFC1023ACA2042189
:1002B000202002F0E9FA0020AC4908600020A4499F
:1002C0000870A449087009E02021A048A14A1278CA
:1002D0008154A0480078401C9E4908709D480078D1
:1002E0000628F1DB1023994A0221282002F0CCFADB
:1002F00004E0FFE700209449087042E700BF0020B7
:100300009149087094480078002874D071E002F098
:1003100000F8C82000F0D3FB8A488B490978405C7C
:10032000002866DB874888490978405C0A2860DA3B
:10033000844885490978405C3030C1B28348844A9A
:100340001278815482480078401C81490870084620
:1003500000788049087009E020217C487D4A1278A5
:1003600081547C480078401C7A49087079480078AC
:100370000628F1DB1023754A0221282002F084FAB6
:1003800073480078062831D1012073490870002095
:10039000704908700DE06D486E490978405C30384E
:1003A0006E496C4A127888546A480078401C694942
:1003B0000870684800780628EDDB00206449087062
:1003C00026220421202002F07CFA2722042130205A
:1003D00002F077FA0B220421402002F072FA0C227C
:1003E0000421502002F06DFA04E004E00020564998
:1003F00008708CE700BF02F06DF9002211461C2046
:1004000002F05FFA012200212E2002F05AFA0222A5
:100410000021402002F055FA03220021522002F070
:1004200050FA10BD10B5052200211C2002F049FA37
:10043000062200212E2002F044FA20220021402032
:1004400002F03FFA21220021522002F03AFAE7E0BE
:1004500001F05FFFC82000F032FB3A483A490978C2
:10046000405C0028F3DB374837490978405C0A28AC
:10047000EDDA344834490978405C30303349344A45
:100480001278885432480078401C31490870084678
:1004900000783049087009E020202C492D4A127854
:1004A00088542C480078401C2A4908702948007854
:1004B0000628F1DB1023254A0221282002F0E4F966
:1004C0002348007806287DD10120234908700020A8
:1004D0002049087012E021481E490978415C1B48F8
:1004E0001C4A1278805C3038814202D000201A49C0
:1004F000087018480078401C1649087015480078A4
:100500000628E8DB14480078C8B1012018490870B3
:100510001849087020220421104602F0D2F9212245
:100520000421302002F0CDF924220421402002F0E1
:10053000C8F925220421502002F0C3F91CE027E06D
:10054000000C01400F000020040000204B000020A0
:100550000C000020580000200D0000205200002058
:100560002020202020202020202000008001214267
:100570000E0000200200002040F6B83000F09FFA84
:100580001023AFF224020421202002F07DF929E09B
:100590000020FE490870FE49086020220421104610
:1005A00002F08FF921220421302002F08AF91E2264
:1005B0000421402002F085F91F220421502002F07E
:1005C00080F900E029E040F6B83000F078FA102316
:1005D000AFF274020421202002F056F90120ED4907
:1005E000C1F880010020EC490870EC49087009E06E
:1005F0002020EB49E94A12788854E8480078401CEA
:10060000E6490870E54800780628F1DB1023E44A43
:100610000221282002F038F903E00020E1490870A7
:1006200016E700BF02F056F8002211461C2002F027
:1006300048F9012200212E2002F043F90222002174
:10064000402002F03EF903220021522002F039F945
:1006500010BD08B529220421002002F032F92A2217
:100660000421102002F02DF9052200211C2002F0A7
:1006700028F9062200212E2002F023F9072200216A
:10068000402002F01EF908220021522002F019F940
:1006900028220021622002F014F924E001F039FE42
:1006A000C148C0490978405C002819DDBE48BD49F1
:1006B0000978405C0A2813DABB48BA490978405CDB
:1006C000BA490870102001230090084602780221E0
:1006D000202002F095F84FF47A7000F0F0F903E072
:1006E000642000F0ECF9D9E700BFB048007801F0D1
:1006F0007FF801F0EFFF002211461C2002F0E1F824
:10070000012200212E2002F0DCF8022200214020EC
:1007100002F0D7F803220021522002F0D2F808BDDF
:1007200008B50D220421002002F0CBF80E2204218E
:10073000102002F0C6F8052200211C2002F0C1F8AA
:10074000062200212E2002F0BCF8072200214020C2
:1007500002F0B7F808220021522002F0B2F8282255
:100760000021622002F0ADF824E001F0D2FD8E48B5
:100770008C490978405C002819DD8B488949097843
:10078000405C0A2813DA884886490978405C874922
:1007900008701020012300900846027802212020D2
:1007A00002F02EF84FF47A7000F089F903E064202B
:1007B00000F085F9D9E700BF7C48007801F0ACF97A
:1007C00001F088FF002211461C2002F07AF8012275
:1007D00000212E2002F075F802220021402002F0B4
:1007E00070F803220021522002F06BF808BD00BF10
:1007F00000F028F94FF4E13000F0A8F94FF461401F
:1008000001F06BFA01F081FC03E04FF4C87000F0D6
:1008100056F9674800F044FF0028F6D1654800F01B
:1008200008FF0446B4F5E06F02D0E0B200F082FFAA
:10083000614800F09BFC044614B1E0B200F07AFF7E
:1008400000F016FA02F0D1F801F044FF0022114640
:100850001C2002F036F8012200212E2002F031F88F
:1008600002220021402002F02CF803220021522015
:1008700002F027F800204B49087001F01FFE41F6F6
:100880001F41C72002F040F94FF47A7000F017F9C9
:100890000A204A49088001203D490860CBE001F068
:1008A00038FD40480078042801D1FFF7BBFD3D48E2
:1008B0000078082801D1FFF74EFC3A4800780C2850
:1008C00001D1FFF7C6FE37480078102801D1FFF7A5
:1008D00027FF642000F0F3F839480078012871D12F
:1008E000142136483C3803F0AFFE01F0F3FE1D2220
:1008F00002211C2001F0E5FF032202212E2001F03D
:10090000E0FF0B220221402001F0DBFF0C2202213C
:10091000522001F0D6FF00201D4908604FF4FA7004
:1009200000F0CDF801201B49C1F880014FF4FA70A6
:1009300000F0C5F80020164908604FF4FA7000F086
:10094000BEF801201349C1F880014FF4FA7000F09D
:10095000B6F800200E4908604FF4FA7000F0AFF8C6
:1009600001200C49C1F880014FF4FA7000F0A7F89B
:100970000A2112483C3803F067FE01F0ABFE00226A
:1009800011461C2001F09DFF01221CE00E000020FA
:1009900080012142000021420C000020580000206C
:1009A0004B000020040000200F0000200300002066
:1009B0006800002000000020780B00203C0400406C
:1009C0000200002010E000212E2001F07AFF022218
:1009D0000021402001F075FF03220021522001F088
:1009E00070FF00201449087014480068E8B11248EC
:1009F0000078D0B900F0A9FE0F480078A8B901F03E
:100A000069FE002211461C2001F05BFF012200213B
:100A10002E2001F056FF02220021402001F051FF5C
:100A200003220021522001F04CFF0548007810B14C
:100A300000200349087032E702000020040121422F
:100A40000400002010B56FF0040002F000F93448F3
:100A500000683449B0FBF1F033490870084600786B
:100A600000EB4001C1EBC0104FF6FF7101EAC0007E
:100A70002E49088010BD01462B4A12784A434FF098
:100A8000E0235A6100229A611A46126942F001027B
:100A90001A6100BF4FF0E022106900F001021AB1A4
:100AA00000F48032002AF5D04FF0E022126922F0E3
:100AB00001024FF0E0231A6100229A61704701465B
:100AC0001A4A12884A434FF0E0235A6100229A6181
:100AD0001A46126942F001021A6100BF4FF0E0228B
:100AE000106900F001021AB100F48032002AF5D03A
:100AF0004FF0E022126922F001024FF0E0231A6168
:100B000000229A61704730B50446002504E042F2A5
:100B10001070FFF7D4FF6D1CA542F8DB30BD00005C
:100B20005C0B002000127A005A0000205C000020BC
:100B300000BF704700BF4A4A128802F04002002AF4
:100B4000F9D0C2B2464B1B1D1A80704710B586B053
:100B50000446012144F2040002F042FC4FF400700C
:100B6000ADF8140003208DF8160018208DF817003A
:100B700005A93C4802F078F94FF48060ADF8140004
:100B800004208DF8170005A9364802F06DF92520DC
:100B90008DF8000003208DF801008DF8020001207F
:100BA0008DF80300684602F008F801940020ADF8C3
:100BB0000800ADF80A00ADF80C00ADF810000C20EC
:100BC000ADF80E0001A9264802F0B1FC012240F266
:100BD0002551234802F043FD0121214802F033FD55
:100BE00006B010BD10B540F225511D4802F01CFEA4
:100BF00010B31B4802F098FDC4B21B48008800F4F3
:100C00000040C8B91848008800F4804060B10A2C40
:100C100003D000201449088020E01348008840F4E5
:100C200000401149088019E00D2C06D10E480088BB
:100C300040F480400C49088010E00B480088C0F365
:100C40000D000A490C5408480088401C06490880D9
:100C500008460088C72801DD0020088010BD00007C
:100C6000003801400008014064000020840B00208F
:100C700008B50121042002F0B3FB0220ADF800000A
:100C800028208DF8030003208DF802006946F748FC
:100C900002F0EAF808BD00BFF549098801F04001FB
:100CA0000029F9D0F249091D0880704710B5EF20DE
:100CB000FFF7F1FF0120FFF7EEFF10BD10B5ED4982
:100CC0000968080EFFF7E7FFEA480068C0F307402D
:100CD000FFF7E1FFE7480088C0F30720FFF7DBFFDD
:100CE000E4490878FFF7D7FF10BD10B50446204649
:100CF000FFF7D1FF10BD10B50446C4F30720FFF77E
:100D0000CAFFE0B2FFF7C7FF10BD10B5044620468A
:100D1000FFF7C1FF10BD10B504462012FFF7BBFF5F
:100D2000E0B2FFF7B8FF10BD7CB50546EF208DF8A7
:100D3000000001208DF80100CE480068000E8DF8FB
:100D40000200CC480068000C8DF80300C9480088F8
:100D5000000A8DF80400C74800788DF805000720C8
:100D60008DF8060000208DF80700C349088016E0C2
:100D70000120FFF7A4FEC048008800F4004070B1D5
:100D80000020BD4908806946BC4803F08FFD044639
:100D9000BA49BBA004F086F80CB120467CBD681EA1
:100DA00080B2051EE4D100BFF8E770B5FFF77EFF03
:100DB000FFF784FF0120FFF798FF0320FFF79BFF59
:100DC0000120FFF7A2FF05263046FFF7A4FF4FF4EE
:100DD000FA60FFF7A9FF05460DB16C7A00E0FF2429
:100DE000204670BD2DE9F0410546FFF75FFFFFF794
:100DF00065FF0120FFF779FF0420FFF77CFF022049
:100E0000FFF783FF2846FFF746FFEF1D3846FFF741
:100E100082FF4FF4FA60FFF787FF06460EB1747A3F
:100E200000E0FF242046BDE8F08170B5FFF73EFFEB
:100E3000FFF744FF0120FFF758FF0320FFF75BFF98
:100E40000320FFF762FF07263046FFF764FF4FF4E9
:100E5000FA60FFF769FF05460DB16C7A00E0FF24E8
:100E6000204670BD2DE9F04781460D4616461F46C7
:100E7000FFF71CFFFFF722FF0120FFF736FF0820D6
:100E8000FFF739FF0420FFF740FF4846FFF703FF55
:100E90002812FFF700FFE8B2FFF7FDFE3012FFF760
:100EA000FAFEF0B2FFF7F7FE09F10D0000EB252086
:100EB000E9B2084400EB2620F1B200EB010A5046EB
:100EC000FFF729FF4FF4FA60FFF72EFF044664B1E5
:100ED00094F80980E07AA17A00EB01203880607BE9
:100EE000217B00EB0120788001E04FF0FF084046B5
:100EF000BDE8F08770B5FFF7D9FEFFF7DFFE0120F0
:100F0000FFF7F3FE0320FFF7F6FE0520FFF7FDFED7
:100F100009263046FFF7FFFE4FF4FA60FFF704FFA3
:100F200005460DB16C7A00E0FF24204670BD2DE926
:100F3000F04106460C46FFF7B9FEFFF7BFFE012061
:100F4000FFF7D3FE0620FFF7D6FE0620FFF7DDFEF3
:100F50003046FFF7A0FE2012FFF79DFEE0B2FFF73C
:100F60009AFE06F10D0000EB2420E1B200EB01082F
:100F70004046FFF7D0FE4FF4FA60FFF7D5FE074674
:100F80000FB17D7A00E0FF252846BDE8F0812DE90C
:100F9000F04104460D46FFF789FEFFF78FFE012062
:100FA000FFF7A3FE0720FFF7A6FE0C20FFF7ADFE1C
:100FB0002012FFF770FEE0B2FFF76DFE2812FFF778
:100FC0006AFEE8B2FFF767FE142000EB2420E1B2CE
:100FD000084400EB2520E9B200EB01084046FFF78A
:100FE0009AFE4FF4FA60FFF79FFE07460FB17E7A34
:100FF00000E0FF263046BDE8F08170B5FFF756FEF1
:10100000FFF75CFE0120FFF770FE0320FFF773FE81
:101010000D20FFF77AFE11263046FFF77CFE4FF4D5
:10102000FA60FFF781FE05460DB16C7A00E0FF24FF
:10103000204670BD014621295ED2DFE801F0111380
:101040001537393B3D3F414345475D5D5D5D494B4C
:101050005D5D5D4D5D5D4F515355575D5D595B0065
:1010600008A04BE008A049E00BA047E000080140C1
:1010700000440040680000206E000020FC100020AA
:10108000257300004F4B0000CAFDBEDDB0FCBDD390
:10109000CAD5B4EDCEF30000B4ABB8D0C6F7C9CF13
:1010A000C3BBD3D0CAD6D6B800000000A7A025E0A5
:1010B000ABA023E0B2A021E0B9A01FE0BFA01DE0DB
:1010C000CCA01BE0CEA019E0D1A017E0D4A000BFB7
:1010D000DCA013E0DFA011E0E2A00FE0EAA00DE049
:1010E000EDA00BE0EFA009E0F2A007E0F6A005E01C
:1010F000FAA003E0FCA001E0FEA000BF00BF704723
:101100002DE9F04706460D46FFF7D0FDFFF7D6FD67
:101110000120FFF7EAFD0520FFF7EDFD0E20FFF7A8
:10112000F4FD3046FFF7B7FD2846FFF7B4FD701910
:1011300000F114084046FFF7EEFD4FF4FA60FFF7A8
:10114000F3FD07460FB17C7A00E0FF241CB9EEA046
:1011500003F0A8FE07E02046FFF76CFF81464946F2
:10116000EEA003F09FFE2046BDE8F0872DE9F04198
:101170000546FFF79BFDFFF7A1FD0120FFF7B5FD39
:101180000320FFF7B8FD0F20FFF7BFFD13273846F8
:10119000FFF7C1FD4FF47A70FFF7C6FD0446BCB1FE
:1011A000667AE07BA17B00EB01202880607CA87040
:1011B000A07C0006E17C00EB0140217D00EB0120DA
:1011C000617D08446860E07D2872607E687200E09E
:1011D000FF26A6B92988D3A003F064FEA978D7A07A
:1011E00003F060FED9A0696803F05CFE687A4FF4F2
:1011F000165200FB02F1D8A003F054FE07E030467F
:10120000FFF718FF80464146C4A003F04BFE30466E
:10121000BDE8F0812DE9F0410446FFF747FDFFF7F7
:101220004DFD0120FFF761FD0720FFF764FD15204C
:10123000FFF76BFD200EFFF72EFDC4F30740FFF70D
:101240002AFDC4F30720FFF726FDE0B2FFF723FDD8
:101250001D2000EB1460C4F307410844C4F30721C8
:101260000844E1B247183846FFF755FDBD48046011
:101270004FF4FA60FFF758FD06460EB1757A00E0AC
:10128000FF25B84804601DB9B7A003F00BFE07E0C6
:101290002846FFF7CFFE80464146A0A003F002FE9D
:1012A0002846BDE8F0812DE9F04781460E46FFF75C
:1012B000FDFCFFF703FD0120FFF717FD2420FFF7DA
:1012C0001AFD1820FFF721FD4846FFF7E4FC002433
:1012D00007E0305DFFF7DFFC305D384487B2601C0B
:1012E000C4B2202CF5DB09F13D00384487B2384602
:1012F000FFF711FD4FF4FA60FFF716FD054615B133
:1013000095F8098001E04FF0FF084046BDE8F087FE
:101310002DE9F04707468846FFF7C8FCFFF7CEFCEB
:101320000120FFF7E2FC0420FFF7E5FC1920FFF79E
:10133000ECFC3846FFF7AFFC07F11E094846FFF703
:10134000EAFC4FF4FA60FFF7EFFC17E1C2BCC8EB10
:10135000D6B8CEC6CDBCCFF1CAA7B0DC0000000025
:10136000D6B8CEC6CDBCCFF1CCABB8C9A1A2CCAB60
:10137000B5ADB6F8C9FAB2BBB3C9CCD8D5F7000041
:10138000D6B8CEC6CDBCCFF1CCABCAAAA1A2CCAB4D
:10139000BAFDB6F8C9FAB2BBB3C9CCD8D5F70000CC
:1013A000D6B8CEC6CDBCCFF1CCABC2D2B6F8C9FA56
:1013B000B2BBB3C9CCD8D5F700000000D6B8CEC6B2
:1013C000CDBCCFF1D5FDB3A3A3ACB5ABCCD8D5F78D
:1013D000B5E3CCABC9D9A3A8BBF2C3E6BBFDCCAB8C
:1013E000D0A1A3A9B6F8C9FAB2BBB3C9CCD8D5F776
:1013F00000000000D6B8CEC6B2BBC6A5C5E400004A
:10140000C3BBCBD1CBF7B5BDD6B8CEC6000000006C
:10141000CCD8D5F7BACFB2A2CAA7B0DC0000000082
:10142000B7C3CECAD6B8CEC6BFE2CAB1B5D8D6B752
:10143000D0F2BAC5B3ACB3F6D6B8CEC6BFE2B7B633
:10144000CEA70000C9BEB3FDC4A3B0E5CAA7B0DCF7
:1014500000000000C7E5BFD5D6B8CEC6BFE2CAA718
:10146000B0DC0000BBBAB3E5C7F8C4DAC3BBD3D065
:10147000D3D0D0A7D4ADCABCCDBCB6F8C9FAB2BBE4
:10148000B3C9CDBCCFF10000B6C1D0B420464C41A9
:10149000534820B3F6B4ED00CEB4B6A8D2E5B4ED0F
:1014A000CEF30000CEDED0A7BCC4B4E6C6F7BAC502
:1014B00000000000BCC4B4E6C6F7C9E8B6A8C4DAA8
:1014C000C8DDB4EDCEF30000BCC7CAC2B1BED2B312
:1014D000C2EBD6B8B6A8B4EDCEF30000D6B8CEC6EF
:1014E000BFE2C2FA00000000B5D8D6B7B4EDCEF323
:1014F00000000000C4A3BFE9B7B5BBD8C8B7C8CFC8
:10150000C2EBD3D0CEF300000D0AC9E8D6C3B2CEE9
:10151000CAFDB3C9B9A6A3A1000000000D0A257336
:10152000000000000D0AC4A3BFE9D7EEB4F3D6B89B
:10153000CEC6C8DDC1BF3D25640000000D0AB6D48B
:10154000B1C8B5C8BCB63D25640000000D0AB5D8C9
:10155000D6B73D25780000000D0AB2A8CCD8C2CA83
:101560003D256400680000200D0AC9E8D6C3B5D83F
:10157000D6B7B3C9B9A6A3A100000000064666B15C
:10158000757A002406E004F10A00305C08F80400D3
:10159000601CC4B2202CF6DB00E0FF252846BDE825
:1015A000F0872DE9F04781460D4616461F46FFF7A6
:1015B0007DFBFFF783FB0120FFF797FB0820FFF778
:1015C0009AFB1B20FFF7A1FB4846FFF764FB28129C
:1015D000FFF761FBE8B2FFF75EFB3012FFF75BFB42
:1015E000F0B2FFF758FB09F1240000EB2520E9B227
:1015F000084400EB2620F1B200EB010A5046FFF749
:101600008AFB4FF4FA60FFF78FFB044664B194F84D
:101610000980E07AA17A00EB01203880607B217B91
:1016200000EB0120788001E04FF0FF084046BDE864
:10163000F0872DE9F0410646FFF738FBFFF73EFB48
:101640000120FFF752FB0320FFF755FB1D20FFF79A
:101650005CFB21273846FFF75EFB4FF4FA60FFF78B
:1016600063FB044634B1657AE07AA17A00EB01208D
:10167000308000E0FF253DB9E07AA27A00EB02213C
:1016800025A003F00FFC08E02846FFF7D3FC8046B6
:101690004146AFF2781003F005FC2846BDE8F08122
:1016A00010B50446FFF702FBFFF708FB0120FFF728
:1016B000F2FA0020FFF7EFFA0020FFF7ECFAC8205B
:1016C000FFF7FDF91948008800F4004008B31848F6
:1016D0000078EF281AD116484078012816D114480E
:1016E0008079072812D11248807800061049C978FD
:1016F00000EB01400E49097900EB01200C494979C2
:101700000844206000200949088010BD00200749D6
:1017100008800120F9E700000D0AD3D0D0A7D6B881
:10172000CEC6B8F6CAFD3D25640000006E0000205C
:10173000FC10002070B504462046FFF77BFC0546F0
:101740002946FEA003F0AEFB70BD38B5FFF72DFBB8
:101750000446002C4BD10120FFF744FB0446002C2B
:1017600042D1FB4802886B4600210120FFF719FF98
:101770000446ECB900F0AEFF072202211C2001F064
:10178000A0F8082202212E2001F09BF81B22022142
:10179000402001F096F81C220221522001F091F81D
:1017A0004FF47A70FFF78BF90120EA4908701EE0C8
:1017B000072202211C2001F084F8082202212E2099
:1017C00001F07FF81E220221402001F07AF81F224A
:1017D0000221522001F075F82046FFF7ABFF4FF4CD
:1017E0007A70FFF76CF902E02046FFF7A3FF38BDDF
:1017F0002DE9F04705464FF0000889E1B8F1050FE3
:1018000038D2DFE808F00338B6E8F700701CC6B23B
:1018100000F060FF04220021142001F052F805229C
:101820000021262001F04DF806220021382001F089
:1018300048F8072200214A2001F043F8082200213D
:101840005C2001F03EF80120FFF75DF9FFF7ADFAEB
:10185000044664B90120FFF7C5FA04461CB9002606
:101860004FF0010806E02046FFF764FF02E0204643
:10187000FFF760FF0BE1701CC6B2FFF796FA044653
:10188000002C3FD10220FFF7ADFA04461CB9002618
:101890004FF002086CE02046FFF74CFF00F01AFF03
:1018A000152200211C2001F00CF8162200212E2008
:1018B00001F007F817220021402001F002F8182259
:1018C0000021522000F0FDFF04220221142000F02C
:1018D000F8FF19220221262000F0F3FF1A2202212C
:1018E000382000F0EEFF052202214A2000F0E9FF37
:1018F000062202215C2000F0E4FF40F6B830FFF73A
:10190000DEF835E02046FFF715FF00F0E3FE152274
:1019100000211C2000F0D5FF162200212E2000F00F
:10192000D0FF17220021402000F0CBFF1822002119
:10193000522000F0C6FF04220221142000F0C1FF53
:1019400019220221262000F0BCFF1A220221382091
:1019500000F0B7FF052202214A2000F0B2FF062264
:1019600002215C2000F0ADFF40F6B830FFF7A7F889
:101970008DE0FFF75AFA044614B94FF0030825E04A
:1019800000F0A8FE04220021142000F09AFF052296
:101990000021262000F095FF06220021382000F0CB
:1019A00090FF072200214A2000F08BFF082200212F
:1019B0005C2000F086FF0120FFF7A5F866A003F089
:1019C00071FA2046FFF7B6FE0026B0464FF4966047
:1019D000FFF775F85BE067A003F064FAFFF78AFA97
:1019E000044644B967A003F05DFA4FF001094FF0D7
:1019F000040805E009E04FF000082046FFF79AFED2
:101A00004FF49660FFF75BF841E063A003F04AFAF9
:101A100065A003F047FA294667A003F043FA4C4853
:101A2000018867A003F03EFA1E204949088000BFE4
:101A30002F4647480088B842FADD39460220FFF7B2
:101A400076FA0446ECB900F045FE0A2201211C207A
:101A500000F037FF062201212E2000F032FF0B227A
:101A60000121402000F02DFF0C220121522000F026
:101A700028FF0120FFF747F85448FFF7DAFDBDE8DB
:101A8000F0874FF000082046FFF754FE00BF00BF6C
:101A90004FF47A70FFF713F8052E39D100F01AFED3
:101AA0000F220121104600F00CFF102201212120FD
:101AB00000F007FF11220121332000F002FF122263
:101AC0000121452000F0FDFE13220121572000F0E6
:101AD000F8FE14220121692000F0F3FE00F0FAFD67
:101AE000002201211C2000F0ECFE012211462E20D4
:101AF00000F0E7FE02220121402000F0E2FE032276
:101B00000121522000F0DDFE0120FEF7FCFF00E085
:101B100074E600BF00BFB2E738B5044600F0DAFD56
:101B20000D220121142000F0CCFE0E2201212620DE
:101B300000F0C7FE07220121382049E00D0AB4ED6C
:101B4000CEF3D0C5CFA2A3BA2573200D0A000000A2
:101B5000780B002002000020B6D4B1C8CAA7B0DCC0
:101B6000A3ACC7EBD6D8D0C2C2BCC8EBD6B8CEC6E1
:101B70000D0A0000C9FAB3C9D6B8CEC6C4A3B0E5F1
:101B80000D0A0000C9FAB3C9D6B8CEC6C4A3B0E5E1
:101B9000B3C9B9A60D0A0000B4A2B4E6D6B8CEC641
:101BA00049440D0A00000000303D3C204944203CDF
:101BB0003D3239390D0A000049443A25640D0A00C6
:101BC00049445F6D61783A25640000000000002000
:101BD00000F077FE082201214A2000F072FE10205A
:101BE00001232246194600905C2000F009FE0120E6
:101BF000FEF789FF01212046FFF7C9F90546B5B96F
:101C000000F068FD0D220121142000F05AFE0E2282
:101C10000121262000F055FE0B220121382000F082
:101C200050FE0C2201214A2000F04BFE02E0284623
:101C3000FFF780FD4FF49660FEF741FF0E48FFF777
:101C4000F8FC00F047FD0D220121142000F039FEC0
:101C50000E220121262000F034FE0B220121382023
:101C600000F02FFE0C2201214A2000F02AFE012064
:101C7000FEF749FF38BD00000000002010B540F21B
:101C80002551B54801F0D0FDF8B1B34801F04CFD45
:101C9000C4B2B248008800F40040B0B9AF48008830
:101CA000B0F5C87F12DA0021AD4802F0C5FCAB48A0
:101CB000008818B90121AA4802F02AFAA749088821
:101CC000411CA64A1180A7490C5405E0A34800888E
:101CD00040F40040A149088010BD10B586B004460C
:101CE0000121042001F07CFB0121480401F085FB67
:101CF000994801F0D9FB0420ADF8100003208DF8BD
:101D0000120018208DF8130004A9974801F0ACF8D0
:101D10000820ADF8100004208DF8130004A99248A3
:101D200001F0A2F84FF4614000900020ADF80400EB
:101D3000ADF80600ADF80800ADF80C000C20ADF8C9
:101D40000A006946844801F0F2FB0121824801F053
:101D50007AFC012240F225517F4801F080FC2620C8
:101D60008DF8140002208DF8150003208DF8160060
:101D700001208DF8170005A800F01FFF41F61F4154
:101D8000632000F014F90020744908800021744891
:101D900002F0BEF906B010BD0FB438B505A800902A
:101DA0007248009A049903F0A1F8002000906F484F
:101DB00002F08EFD85B200240DE000BF4021664890
:101DC00001F01CFD0028F9D06848015D624801F06F
:101DD000A7FC601C84B2AC42EFDB38BC5DF814FB9E
:101DE00010B540F22551624801F01EFD10B3604865
:101DF00001F09AFCC4B25F48008800F40040C8B902
:101E00005C48008800F4804060B10A2C03D00020B8
:101E10005849088021E05748008840F4004055495F
:101E200008801AE00D2C06D15248008840F480400A
:101E30005049088011E04F480088C0F30D004E491A
:101E40000C544C480088401C4A49088008460088C9
:101E5000B0F5167F01DB002008800120454908808D
:101E600010BD10B586B004460121082001F0B8FA73
:101E70000121880401F0C1FA3D4801F015FB4FF43F
:101E80008060ADF8100003208DF8120018208DF846
:101E9000130004A9394800F0E7FF4FF40060ADF8E3
:101EA000100004208DF8130004A9344800F0DCFF72
:101EB00000940020ADF80400ADF80600ADF808006D
:101EC000ADF80C000C20ADF80A006946284801F076
:101ED0002EFB0121264801F0B6FB012240F22551DC
:101EE000234801F0BCFB27208DF8140002208DF858
:101EF000150003208DF8160001208DF8170005A8A5
:101F000000F05BFE00201B49088006B010BD0FB436
:101F100038B505A800901A48009A049902F0E6FF27
:101F200000200090164802F0D3FC85B200240DE09A
:101F300000BF40210E4801F061FC0028F9D0104894
:101F4000015D0B4801F0ECFB601C84B2AC42EFDB9E
:101F500038BC5DF814FB0000004400406E00002017
:101F600000080040FC100020000801408C120020F6
:101F7000004800406C0000204C0C0020000C014088
:101F8000A40E002010B50121414802F08AFB68B17F
:101F90004048008840F400403E49088001213C4808
:101FA00002F090FB00213A4802F0B2F810BD7FB574
:101FB00005460C460121042001F01FFAADF804503B
:101FC000ADF800400020ADF80600ADF8020069460B
:101FD0002F4801F041FD012211462D4802F0B3F8CF
:101FE00001212B4802F094F81E208DF80C000020EF
:101FF0008DF80D0002208DF80E0001208DF80F00E5
:1020000003A800F0DAFD7FBD10B50121224802F0DF
:1020100048FB68B11F48008840F400401D49088013
:1020200001211D4802F04EFB00211B4802F070F810
:1020300010BD7FB504460D460121C80201F0D0F95C
:1020400040F2F310ADF8080040F20770ADF804005C
:102050000020ADF80A00ADF806008DF80C0001A9CB
:102060000D4801F0F9FC012211460B4802F06BF813
:1020700019208DF8000000208DF801008DF8020075
:1020800001208DF80300684600F097FD7FBD000039
:10209000000800406E000020002C01400EB5012118
:1020A000092001F09DF94FF47070019000208DF827
:1020B00008000C208DF8090001208DF80A0001A805
:1020C00000F0F2FD0621012000F0E4FF07210120CD
:1020D00000F0E0FF0821012000F0DCFF09210120D1
:1020E00000F0D8FF4FF4C06000F062FD17208DF8BB
:1020F000000000208DF801008DF8020001208DF80D
:102100000300684600F059FD0EBD08B501210C2002
:1021100001F066F941F61010ADF8000010208DF8BE
:10212000030003208DF802006946D44800F09CFEAD
:102130004FF47070ADF8000048208DF80300694638
:10214000CF4800F091FECE480C30006840F04000CF
:10215000CB490C3108600846006840F080000860F8
:102160000846006840F4807008600846006840F443
:1021700000700860FFF792FF08BD10B5C148006805
:10218000012833D1C04908606420FEF798FC402044
:1021900000F0F0FD28B10020BC490860402000F0AC
:1021A000E5FD802000F0E6FD28B10120B749086078
:1021B000802000F0DBFD4FF4807000F0DBFD28B1E3
:1021C0000220B2490860C00100F0D0FD4FF4007059
:1021D00000F0D0FD30B10320AC4908604FF400702E
:1021E00000F0C4FD0020A749086091E0A8480078ED
:1021F000012821D1402000F0BDFD10B1402000F0A9
:10220000B5FD802000F0B6FD10B1802000F0AEFDDD
:102210004FF4807000F0AEFD18B14FF4807000F004
:10222000A5FD4FF4007000F0A5FD002870D04FF41C
:10223000007000F09BFD6BE0402000F09BFD60B162
:10224000944800789449086005209249087001205C
:102250008F490870402000F089FD802000F08AFD41
:1022600060B18C4800788C49086005208949087065
:10227000012087490870802000F078FD4FF48070BD
:1022800000F078FD60B1834800788349086005203C
:102290008049087001207E490870000200F066FD48
:1022A0004FF4007000F066FD60B17A4800787A491A
:1022B00008600520774908700120754908704002C0
:1022C00000F054FD0020704908607348006804283D
:1022D0001BDA6E480068042817DA6F480068C0F1FE
:1022E00003016A48007801EB8000401C6B490870CC
:1022F00066480368684802680846017868A002F0EA
:10230000D1FDC820FEF7DBFB02E000206349087026
:1023100010BD10B54FF48071584800F054FE4FF4D2
:102320000061564800F04FFE4FF48051534800F0D2
:102330004AFE1021514800F046FE5248006800282D
:102340007ED14FF480714D4800F03BFE4FF40061A8
:102350004A4800F036FE4FF48051484800F031FE04
:102360001021464800F02DFE49480078C0B90020F1
:10237000484908704FF48071404800F024FE4FF443
:1023800000613E4800F01DFE4FF480513B4800F0D4
:1023900018FE1021394800F014FE0520FEF78FFBCF
:1023A0003B480078B8B901203A4908700102334827
:1023B00000F007FE4FF40061304800F004FE4FF4D7
:1023C00080512E4800F0FDFD10212C4800F0F9FD51
:1023D0000520FEF774FB2E480078B8B902202D497D
:1023E0000870C101254800F0ECFD4FF4006123485E
:1023F00000F0E7FD4FF48051204800F0E4FD10218B
:102400001E4800F0DEFD0520FEF759FB204800784D
:10241000D0B903201F4908704FF48071174800F0AD
:10242000D0FD4FF40061154800F0CBFD4FF4805112
:10243000124800F0C6FD1021104800F0C4FD00E075
:102440001BE00520FEF73BFB4FF480710B4800F0CA
:10245000BAFD4FF40061094800F0B5FD4FF480511A
:10246000064800F0B0FD1021044800F0ACFD00204B
:102470000749087001200349086010BD00080140A9
:10248000000C014074000020780000207C00002037
:102490007100002070000020800000200400002057
:1024A00073733A25642020726F773A256420206C7C
:1024B000696E3A2564200D0A0000000008B501216C
:1024C000042000F08DFF0120ADF8000010208DF8F1
:1024D000030003208DF802006946044800F0C4FCA4
:1024E0000121024800F06DFD08BD00000008014018
:1024F00010B52021F94800F064FD8021F74800F074
:1025000060FD8021F54800F05EFD2021F34800F0D9
:102510005AFD10BD10B52021F04800F052FD802179
:10252000EE4800F050FD8021EC4800F04AFD10BD5F
:1025300010B52021E94800F044FD2021E74800F0D3
:1025400042FD10BD2DE9F04105462C462021E3480F
:1025500000F039FD002619E0274607F08007802F9C
:1025600004D18021DD4800F02CFD03E08021DB4810
:1025700000F029FD6006040E2021D84800F021FD5E
:102580002021D64800F01FFD701CC6B2082EE3DBE8
:10259000BDE8F08110B50446FFF7AAFF7820FFF7E9
:1025A000D1FFFFF7C5FF0020FFF7CCFFFFF7C0FF0B
:1025B0002046FFF7C7FFFFF7BBFFFFF7ABFF10BDDC
:1025C00010B50446FFF794FF7820FFF7BBFFFFF735
:1025D000AFFF4020FFF7B6FFFFF7AAFF2046FFF747
:1025E000B1FFFFF7A5FFFFF795FF10BD70B50446DB
:1025F0000D461DB1E0B2FFF7E3FF02E0E0B2FFF7E6
:10260000C9FF70BD70B50646002418E004F1B000A3
:102610000021FFF7EBFF00210846FFF7E7FF00214D
:102620001020FFF7E3FF002505E001213046FFF70A
:10263000DDFF681CC5B2802DF7DB601CC4B2082C1E
:10264000E4DB70BD06E041F6650100E0491E0029AB
:10265000FCD1401E0028F6D17047014605E000205D
:1026600001E0421CD0B27B28FBDB0A1EA1F1010174
:10267000F5D1704770B504460D4605F1B000002154
:10268000FFF7B4FF102141EA14100021FFF7AEFF5D
:1026900004F00F000021FFF7A9FF70BD10B5002165
:1026A0008D20FFF7A3FF00211420FFF79FFF0021DB
:1026B000AF20FFF79BFF10BD10B500218D20FFF765
:1026C00095FF00211020FFF791FF0021AE20FFF7BA
:1026D0008DFF10BD70B5002418E004F1B00000219A
:1026E000FFF784FF00210846FFF780FF002110203C
:1026F000FFF77CFF002505E001210020FFF776FFB2
:10270000681CC5B2802DF7DB601CC4B2082CE4DB6A
:1027100070BD70B5002418E004F1B0000021FFF78F
:1027200065FF00210846FFF761FF00211020FFF739
:102730005DFF002505E001210846FFF757FF681CF3
:10274000C5B2802DF7DB601CC4B2082CE4DB70BD81
:102750002DE9F04707460E4690469946002500248D
:10276000A8F12000C5B27F2F02DD0027B01CC6B241
:10277000B9F1100F24D131463846FFF77BFF002412
:1027800008E004EB0511564A505C0121FFF72EFFCB
:10279000601CC4B2082CF4DB701CC1B23846FFF7D1
:1027A00069FF002409E004EB051108314C4A505C34
:1027B0000121FFF71BFF601CC4B2082CF3DB12E001
:1027C00031463846FFF756FF00240AE005EB450185
:1027D000444A02EB4101085D0121FFF707FF601C3D
:1027E000C4B2062CF2DBBDE8F08710B5024601202A
:1027F00000E050430B1EA1F10104E1B2F9D110BD7C
:102800002DE9FF5F074691461E460E9D4FF0000AD8
:10281000002435E0301B401EC1B20A20FFF7E5FF5F
:10282000B9FBF0F00A21B0FBF1F201FB1208BAF19A
:10283000000F14D1701EA04211DDB8F1000F0CD1B1
:10284000AB4605EBDB71491001FB0471C8B22B46A6
:1028500020220199FFF77CFF10E04FF0010AAB4600
:1028600005EBDB71491001FB0471C8B208F13001BE
:10287000CAB22B460199FFF76BFF00BF601CC4B2C0
:10288000B442C7DBBDE8FF9F2DE9F04104460F4687
:102890001546984600260FE0AA5D43463946204675
:1028A000FFF756FF04F10800C4B2782C02DD0024C3
:1028B000B81CC7B2701CC6B2A85D0028ECD1BDE838
:1028C000F0812DE9F04180460E461546002731463D
:1028D0004046FFF7CFFE002411E000000008014051
:1028E000D05A0008A8580008834A02EB8511085DF9
:1028F0000121FFF77BFE781CC7B2601CC4B2102C0C
:10290000F2DB701CC1B24046FFF7B4FE00240CE0BD
:102910006900491C784A02EB4111085D0121FFF76B
:1029200065FE781CC7B2601CC4B2102CF0DBBDE899
:10293000F0812DE9F05F81468A4615461E4606F174
:10294000020B584602F07AFF0446284601F0C7FF02
:1029500007463A460B4669A1204602F0B3FA102317
:10296000224651464846FFF78FFF204602F03EFFC1
:10297000BDE8F09F2DE9F05F06460F4690461C46E5
:10298000DDF828A04FF0000BE11704EB5171C910DE
:10299000A4EBC10131B92046E11704EB5171C1F339
:1029A000C70506E02046E11704EB5171C910491C28
:1029B000CDB23D4615E029463046FFF75BFEB146F5
:1029C0000BE059460BF1010B1AF801000121FFF74A
:1029D0000DFE09F1010000F0FF09C145F1DB681CA3
:1029E000C5B2A542E7DBBDE8F09F08B50121042090
:1029F00000F0F6FCA020ADF8000010208DF80300D8
:102A000003208DF8020069463E4800F02DFAA0210F
:102A10003C4800F0D6FA4FF44870FEF750F8002119
:102A2000AE20FFF7E3FD00210846FFF7DFFD0021A0
:102A30001020FFF7DBFD00214020FFF7D7FD00212C
:102A4000B020FFF7D3FD00218120FFF7CFFD00214B
:102A5000FF20FFF7CBFD0021A120FFF7C7FD0021DC
:102A6000A620FFF7C3FD0021A820FFF7BFFD00212E
:102A70003F20FFF7BBFD0021C820FFF7B7FD002175
:102A8000D320FFF7B3FD00210846FFF7AFFD00217B
:102A9000D520FFF7ABFD00218020FFF7A7FD002127
:102AA000D820FFF7A3FD00210520FFF79FFD00219F
:102AB000D920FFF79BFD0021F120FFF797FD0021B2
:102AC000DA20FFF793FD00211220FFF78FFD002190
:102AD000DB20FFF78BFD00213020FFF787FD002171
:102AE0008D20FFF783FD00211420FFF77FFD0021DB
:102AF000AF20FFF77BFD08BD85000020252E326644
:102B0000000000000008014030B589B005460C46C1
:102B10000121082000F064FC0320ADF804008DF8CA
:102B2000060018208DF8070001A91F4800F09CF945
:102B30000121022000F061FCADF81C50ADF81840F6
:102B40000020ADF81E00ADF81A0006A9174800F0E5
:102B500083FF6020ADF808000120ADF80A000020D6
:102B6000ADF80E00ADF8100002A9104801F040F8D1
:102B700008210E4801F012FC02A90C4801F083F86C
:102B800008210A4801F013FC0121084801F0C0FBAC
:102B90000121064801F0BCFA002004493C310880BC
:102BA000091D088009B030BD000C01400004004040
:102BB00031490143314A1160704770B5002100234B
:102BC0000F22C47804B32D4C246804F4E064C4F5E7
:102BD000E064210AC1F10403CA40447804FA03F115
:102BE0008478144021430901254C0678A1550478C6
:102BF00004F01F050124AC4005786D11AD0005F10E
:102C0000E025C5F8004109E0047804F01F0501241F
:102C1000AC401C4D0678761145F8264070BD1A4A26
:102C20000A400243154B1B1F1A60704739B1134A03
:102C3000121D12680243114B1B1D1A6006E00F4A59
:102C4000121D126882430D4B1B1D1A607047042829
:102C500008D14FF0E021096941F004014FF0E02272
:102C6000116107E04FF0E021096921F004014FF004
:102C7000E0221161704700000000FA050CED00E051
:102C800000E400E080E100E080FFFF1F00204449F5
:102C90000860091D0860091D0860091D0860414899
:102CA0003F4914310860704700213D498279002A6C
:102CB0003AD00A46126803689A430B461A600A1D06
:102CC000126803689A430B1D1A60027911440A685E
:102CD00003681A430A60324A0832126803689A434A
:102CE0002F4B08331A601A1D126803689A432C4B45
:102CF0000C331A604279102A0ED11A1F1268036829
:102D00001A43274B08331A601A1D126803681A43C6
:102D1000234B0C331A600DE02149427911440A68B3
:102D200003681A430A6005E0027911440A680368DF
:102D30009A430A6070470021016001710C214171C2
:102D40000021817170471649103109680143144A06
:102D500010321160704701460020114A1432126887
:102D60000A400AB1012000E0002070470C491431EC
:102D700008607047014600200022094B1B6803EAE7
:102D80000102074B14331B680B4013B10AB1012039
:102D900000E00020704702491431086070470000CD
:102DA00000040140FFFF0F0010B50446CC488442E8
:102DB00008D10121042000F02DFB0021042000F0A7
:102DC00029FB46E0C748844208D10121082000F0D1
:102DD00021FB0021082000F01DFB3AE0C24884429C
:102DE00008D10121102000F015FB0021102000F077
:102DF00011FB2EE0BD48844208D10121202000F0C3
:102E000009FB0021202000F005FB22E0B8488442A5
:102E100008D10121402000F0FDFA0021402000F0FF
:102E2000F9FA16E0B348844208D10121802000F06D
:102E3000F1FA0021802000F0EDFA0AE0AE48844269
:102E400007D10121801500F0E5FA0021A01500F05E
:102E5000E1FA10BD10B50121084600F0DBFA0021AF
:102E6000012000F0D7FA10BD2DE9F04102460025FF
:102E70000026002000230024002791F803C00CF056
:102E80000F0591F803C00CF0100CBCF1000F03D03B
:102E900091F802C04CEA050591F800C0BCF1000FA2
:102EA00031D0146800202BE04FF0010C0CFA00F335
:102EB000B1F800C00CEA03069E4220D183004FF017
:102EC0000F0C0CFA03F7BC4305FA03FC4CEA0404AC
:102ED00091F803C0BCF1280F06D14FF0010C0CFA99
:102EE00000FCC2F814C00AE091F803C0BCF1480F1E
:102EF00005D14FF0010C0CFA00FCC2F810C0401CC8
:102F00000828D1D31460B1F800C0BCF1FF0F34DD44
:102F1000546800202EE000F1080C4FF0010808FA78
:102F20000CF3B1F800C00CEA03069E4221D18300E5
:102F30004FF00F0C0CFA03F7BC4305FA03FC4CEA04
:102F4000040491F803C0BCF1280F05D100F1080C6E
:102F500008FA0CF8C2F8148091F803C0BCF1480FCD
:102F600007D100F1080C4FF0010808FA0CF8C2F87C
:102F70001080401C0828CED35460BDE8F0814FF685
:102F8000FF710180022181700421C17070470246E7
:102F9000002093680B400BB1012000E00020704737
:102FA0000146886880B2704702460020D3680B4013
:102FB0000BB1012000E0002070470146C86880B2D4
:102FC000704701617047416170470AB1016100E0DB
:102FD00041617047C16070474FF480320A4382619B
:102FE0008161826182698269704702460020434B99
:102FF00018684FF68073184040EA021008433F4BB0
:10300000186070473E49C8617047F0B50A46002312
:1030100000240021002500F00046B6F1004F02D147
:10302000364EF16901E0354E7168C0F3034583B255
:1030300000F44016B6F5401F08D121F070612F4E04
:10304000766826F070662D4F7E6012E000F48016E0
:10305000B6F5801F06D1032606FA05F4A14341F018
:10306000706106E0460D360103FA06F6B14341F001
:10307000706122B1460D360103FA06F6314300F0C5
:103080000046B6F1004F02D11C4EF16101E01B4E2B
:103090007160F0BD30B500228B071C0F0F2303FABF
:1030A00004F2164B08338C1053F824309343134C1E
:1030B00008348D1044F8253023468C1053F8243002
:1030C0008C07240F00FA04F423430C4C08348D10B1
:1030D00044F8253030BD0A49DC31086070470000F3
:1030E00000080140000C01400010014000140140A4
:1030F00000180140001C0140002001400000014078
:1031000000002042DF48006840F00100DD4908600F
:1031100008464068DC490840DA49486008460068CB
:10312000DA490840D74908600846006820F4802042
:1031300008600846406820F4FE0048604FF41F0015
:1031400088607047CF49096821F48031CD4A116009
:103150001146096821F480211160B0F5803F03D049
:10316000B0F5802F0ED106E0C649096841F48031E0
:10317000C44A116007E0C349096841F4A021C14A6B
:10318000116000E000BF00BF704710B5014600228B
:10319000002300204A11012A02D1BA4C236806E01C
:1031A000022A02D1B74C236A01E0B64C636A01F0EF
:1031B0001F02012494401C400CB1012000E00020BB
:1031C00010BD38B5002000900024002500BF31203C
:1031D000FFF7DBFF05460098401C00900098B0F513
:1031E000A06F01D0002DF2D03120FFF7CEFF08B143
:1031F000012400E00024204638BD01460020A14AF9
:10320000106820F0F80040EAC10010607047A04943
:1032100008607047024600209A4B586820F47C10E2
:1032200042EA01031843974B586070479849086673
:10323000704701460020934A506820F0030008437D
:10324000506070478F48406800F00C00704701469E
:1032500000208C4A506820F0F0000843506070470E
:1032600001460020874A506820F4E060084350601F
:10327000704701460020834A506820F4605040EABD
:10328000C1005060704729B17E4A527A02437D4B9B
:103290005A7204E07B4A527A82437A4B5A727047E0
:1032A0007B49D8310860704701460020754A506854
:1032B00020F440400843506070470021714A20329A
:1032C0001170704A82F82010012802D004280AD117
:1032D00004E001216B4A2032117005E00521694AA2
:1032E0002032117000E000BF00BF704769490860DC
:1032F00070476449096A0143624A1162704765492F
:1033000044390860704730B50021002200240023B2
:103310005C4D6D6805F00C0121B1042905D0082928
:1033200023D105E05C4D056022E05B4D05601FE0A8
:10333000544D6D6805F47012524D6D6805F480347B
:10334000022505EB92421CB9544D554305600BE034
:103350004C4D6D6805F400351DB1504D5543056069
:1033600002E04D4D5543056002E04B4D056000BF46
:1033700000BF444D6D6805F0F0010909484D6B5CD4
:103380000568DD4045603F4D6D6805F4E061090A60
:10339000434D6B5C4568DD4085603A4D6D6805F4D2
:1033A0006051C90A3E4D6B5C4568DD40C560354DD6
:1033B0006D6805F44041890B3A4D6B5CC568B5FBFF
:1033C000F3F5056130BD29B12E4A526902432D4BF8
:1033D0005A6104E02B4A526982432A4B5A61704772
:1033E00029B1284A92690243264B9A6104E0254A92
:1033F00092698243234B9A61704729B1214AD2696D
:103400000243204BDA6104E01E4AD26982431D4B1D
:10341000DA61704729B11B4AD2680243194BDA605E
:1034200004E0184AD2688243164BDA60704729B12B
:10343000144A12690243134B1A6104E0114A1269DB
:103440008243104B1A617047124940390860704737
:103450000F49C86470470B49C87170470948406AF2
:1034600040F0807007494862704701460020054AD5
:1034700092680A400AB1012000E00020704701492B
:1034800088727047001002400000FFF8FFFFF6FE50
:10349000000042428004424200127A0000093D00CE
:1034A000450B0020550B002010B50446FB48844214
:1034B00009D101218803FFF7ADFF00214FF48040BF
:1034C000FFF7A8FF32E0F648844209D10121480401
:1034D000FFF7ADFF00214FF40030FFF7A8FF25E014
:1034E000F048844209D101218804FFF7A0FF0021A0
:1034F0004FF48020FFF79BFF18E0EB48844209D18E
:103500000121C804FFF793FF00214FF40020FFF7CB
:103510008EFF0BE0E548844208D101210805FFF742
:1035200086FF00214FF48010FFF781FF10BD2DE9C9
:10353000F04786B005460E460024A24600BFA146CD
:103540000027B08900B100BF2F462C8A4CF6FF70CF
:103550000440F08804432C82AC894EF6F3100440FA
:10356000B08831890843718908430443AC81AC8A2F
:103570004FF6FF400440B0890443AC8201A8FFF736
:10358000C2FEC648874202D1DDF810A001E0DDF896
:103590000CA0A88900F4004040B10AEBCA0000EB7F
:1035A0000A1031684900B0FBF1F807E00AEBCA00E5
:1035B00000EB0A1031688900B0FBF1F86420B8FB19
:1035C000F0F004012009642101FB1089A88900F4AE
:1035D000004040B1322000EBC900B0FBF1F000F038
:1035E0000700044308E0322000EB09106421B0FB1F
:1035F000F1F000F00F0004432C8106B0BDE8F08725
:103600004FF41651016000218180C18001810C219D
:10361000418100218181704710B502460020108A47
:103620004FF2FF0318400B884C8823438C882343B8
:10363000CC8823431843108210BD002101804180B3
:103640008180C180704721B1828942F40052828119
:1036500004E082894DF6FF731A4082817047F0B50D
:103660000346002400260025002040F66A17B942D0
:1036700000D100BF1846C1F3421401F01F06012714
:1036800007FA06F5012C01D10C3004E0022C01D11F
:10369000103000E014301AB107682F43076002E0D1
:1036A0000768AF430760F0BD1AB1838A0B4383827A
:1036B00002E0838A8B4383827047028A4FF6F0735D
:1036C0001A400282028A0A430282704782894FF2BC
:1036D000FF731A40828182890A438281704721B137
:1036E000828942F00202828104E082894FF6FD73F2
:1036F0001A4082817047028A4FF6DF731A400282B5
:10370000028A0A430282704721B1028A42F480424F
:10371000028204E0028A4BF6FF731A40028270476D
:10372000C1F308028280704701468888C0F3080010
:103730007047818941F0010181817047028BD2B2CB
:103740000283028B42EA012202837047028B02F459
:103750007F420283028B0A430283704721B1828A2F
:1037600042F02002828204E0828A4FF6DF731A4020
:103770008282704721B1828A42F01002828204E084
:10378000828A4FF6EF731A408282704721B1828A93
:1037900042F00802828204E0828A4FF6F7731A40F0
:1037A0008282704721B1828942F40042828103E023
:1037B0008289C2F30E028281704721B1828A42F46B
:1037C0000062828204E0828A4FF2FF731A40828292
:1037D0007047828A4FF6FB731A408282828A0A43BC
:1037E0008282704721B1828A42F00202828204E022
:1037F000828A4FF6FD731A4082827047024600208B
:10380000B1F5007F00D100BF13880B400BB1012040
:1038100000E00020704701F40072B2F5007F00D193
:1038200000BFCA430280704770B5024600240023DF
:103830000025002040F66A16B14200D100BFC1F356
:10384000421501F01F03012606FA03F3012D02D1F0
:103850009689334006E0022D02D1168A334001E0FA
:10386000968A33400C12012606FA04F41688344076
:1038700013B10CB1012000E0002070BD10B5002292
:10388000002340F66A14A14200D100BF0A120124AD
:103890009440A3B2DC43048010BD00000038014016
:1038A0000044004000480040004C004000500040F0
:1038B00010B50446FE48844208D10121C014FFF728
:1038C000A9FD0021E014FFF7A5FDC4E0B4F1804F8D
:1038D00008D101210846FFF7AAFD00210120FFF7CA
:1038E000A6FDB8E0F348844208D101210220FFF789
:1038F0009EFD00210220FFF79AFDACE0EE488442D5
:1039000008D101210420FFF792FD00210420FFF7D8
:103910008EFDA0E0E948844208D101210820FFF78C
:1039200086FD00210820FFF782FD94E0E4488442F0
:1039300008D101211020FFF77AFD00211020FFF7A8
:1039400076FD88E0DF48844208D101212020FFF77E
:103950006EFD00212020FFF76AFD7CE0DA488442FA
:1039600008D101214014FFF755FD00216014FFF735
:1039700051FD70E0D548844209D10121C804FFF708
:1039800049FD00214FF40020FFF744FD63E0D048DB
:10399000844209D101210805FFF73CFD00214FF4C5
:1039A0008010FFF737FD56E0CA48844209D1012153
:1039B0004805FFF72FFD00214FF40010FFF72AFD07
:1039C00049E0C548844208D101214020FFF72FFD7E
:1039D00000214020FFF72BFD3DE0C048844208D184
:1039E00001218020FFF723FD00218020FFF71FFD2C
:1039F00031E0BB48844208D101218015FFF717FD53
:103A00000021A015FFF713FD25E0B648844209D137
:103A100001210804FFF7FEFC00214FF48030FFF77E
:103A2000F9FC18E0B048844209D101214804FFF7AD
:103A3000F1FC00214FF40030FFF7ECFC0BE0AB4849
:103A4000844208D101218804FFF7E4FC00214FF4EF
:103A50008020FFF7DFFC10BD00220288944B9842C3
:103A60000ED0994B98420BD0B0F1804F08D0914BBB
:103A7000984205D0904B984202D0904B984204D186
:103A80004FF68F731A404B881A438D4B984207D0DC
:103A90008C4B984204D04FF6FF431A40CB881A4310
:103AA00002808B8883850B880385814B98420BD0DD
:103AB000854B984208D08B4B984205D08A4B984250
:103AC00002D08A4B984201D10B7A0386012383826C
:103AD000704770B5002400220023058C4FF6FE7657
:103AE00035400584028C8388048B4FF68F752C40FB
:103AF000B51E2C400D882C43751E2A400D892A4383
:103B00004D882A436A4DA8420BD06F4DA84208D079
:103B1000744DA84205D0744DA84202D0734DA842FE
:103B200013D14FF6F7752A404D892A434FF6FB759E
:103B30002A408D882A434FF6FF652B404FF6FF55EC
:103B40002B408D892B43CD892B4383800483CD88E3
:103B50008586028470BD70B5002400220023058C88
:103B60004FF6EF7635400584028C8388048B48F647
:103B7000FF752C404FF6FF452C400D884FF6FF7621
:103B800006EA05252C434FF6DF752A400D8906EA23
:103B900005152A434D8806EA05152A43444DA842D7
:103BA00002D0494DA8421DD14FF67F752A404D895C
:103BB0004FF6FF7606EA05152A434FF6BF752A40F1
:103BC0008D8806EA05152A434FF6FF352B404FF244
:103BD000FF752B408D8906EA85052B43CD8906EAC2
:103BE00085052B4383800483CD880587028470BDBF
:103BF00070B5002400220023058C4FF6FF66354087
:103C00000584028C8388848B4FF68F752C404FF689
:103C1000FC752C400D882C434FF6FF552A400D892A
:103C20004FF6FF7606EA05252A434D8806EA052564
:103C30002A431F4DA84202D0234DA8421DD14FF266
:103C4000FF752A404D894FF6FF7606EA05252A437F
:103C50004FF6FF352A408D8806EA05252A434EF6A1
:103C6000FF752B404DF6FF752B408D8906EA051533
:103C70002B43CD8906EA05152B4383808483CD88A9
:103C80008587028470BD70B5002200230024058C56
:103C90004EF6FF7635400584038C8488828B48F687
:103CA000FF752A404FF6FF452A400D8820E00000AE
:103CB000002C01400004004000080040000C0040BF
:103CC000001000400014004000340140004C01404E
:103CD000005001400054014000180040001C00400A
:103CE00000200040004001400044014000480140E5
:103CF0004FF6FF7606EA05252A434DF6FF752B4061
:103D00000D8906EA05352B434D8806EA05352B4318
:103D1000FA4DA84202D0FA4DA84208D14BF6FF75E1
:103D20002C408D894FF6FF7606EA85152C4384805A
:103D30008283CD88A0F84050038470BD828B4FF2FF
:103D4000FF331A408283828B4FF6FF7303EA01230D
:103D50001A4382837047F0B50C46154600220021B5
:103D60000026078C4EF6FF7C07EA0C070784828B3F
:103D7000018C4FF6FF7707EA043640F6FF473A40DA
:103D80004FF6FF7707EA05273A434FF6FF7707EA32
:103D900003373A43D94FB8420ED0D94FB8420BD06F
:103DA000B0F1804F08D0D74FB84205D0D64FB842B7
:103DB00002D0D64FB84206D14DF6FF77394046F4CF
:103DC0008057394305E047F6FF57394044F48057A0
:103DD000394382830184F0BD828B4FF6F3731A401E
:103DE0008283828B0A4382837047F0B50C46154666
:103DF000002200210026078C4FF6FF6C07EA0C0713
:103E00000784828B018C4FF6FF7707EA04264FF672
:103E10000C773A404FF6FF7707EA03172F433A43F0
:103E2000B64FB8420ED0B64FB8420BD0B0F1804F6B
:103E300008D0B44FB84205D0B34FB84202D0B34F08
:103E4000B84206D14FF6FF57394046F480773943E0
:103E500005E04FF2FF57394044F4807739438283BD
:103E60000184F0BD028B4FF2FF331A400283028BB4
:103E70004FF6FF7303EA01231A4302837047F0B53C
:103E80000C461546002200210026078C4FF6EF7CD9
:103E900007EA0C070784028B018C4FF6FF7707EACD
:103EA000041640F6FF473A404FF6FF7707EA03371C
:103EB0003A434FF6FF7707EA05273A438F4FB84258
:103EC0000ED08F4FB8420BD0B0F1804F08D08D4F3D
:103ED000B84205D08C4FB84202D08C4FB84206D1C0
:103EE0004FF6DF77394046F01007394305E04FF6CB
:103EF0005F77394044F01007394302830184F0BDF5
:103F0000028B4FF6F3731A400283028B0A4302833B
:103F10007047F0B50C46154600220021068C4FF67E
:103F2000FE773E400684028B018C4FF60C763240C1
:103F30007E1C06EA03162E433243704EB0420ED06A
:103F40006F4EB0420BD0B0F1804F08D06D4EB042F2
:103F500005D06D4EB04202D06C4EB04206D14FF645
:103F6000FD76314044F00106314305E04FF6F57629
:103F7000314044F00106314302830184F0BD70B545
:103F800005460C465D4885420ED05D4885420BD003
:103F9000B5F1804F08D05B48854205D05A4885422C
:103FA00002D05A48854200D100E000BF208850B9B5
:103FB0002389A28861882846FFF7ABFFE18828465D
:103FC000FFF79EFF25E0208804280AD12389A288D4
:103FD00061882846FFF753FFE1882846FFF742FF34
:103FE00017E0208808280AD12389A28861882846FA
:103FF000FFF7FBFEE1882846FFF7EEFE09E0238984
:10400000A28861882846FFF7A6FEE1882846FFF7C8
:1040100095FE70BD2DE9F04105460C4600260127AE
:10402000608808B9022600E00026A088012801D196
:10403000022700E001272088A0B92389A28861888F
:104040002846FFF766FFE1882846FFF759FF2389D6
:104050003A4631462846FFF712FFE1882846FFF727
:1040600001FF13E02389A28861882846FFF707FF34
:10407000E1882846FFF7F6FE23893A46314628466E
:10408000FFF747FFE1882846FFF73AFFBDE8F081D8
:104090000A884B881A438B881A43CB881A430B89AA
:1040A0001A434B891A438B891A43A0F8442070475E
:1040B0004FF6FF71818000210180C1804180017233
:1040C00070470021018041808180C1800181418150
:1040D0008181C1817047002101804180012181805F
:1040E0000021C180018170470021018041808180D1
:1040F000C18001814181818170470000002C014015
:10410000003401400004004000080040000C004062
:1041100021B1028842F00102028004E002884FF6D9
:10412000FE731A400280704731B1B0F8442042F467
:104130000042A0F8442005E0B0F84420C2F30E028B
:10414000A0F8442070471AB183890B43838102E0B1
:1041500083898B43838170478182704741EA0203E0
:10416000A0F8483070471AB183890B43838102E07D
:1041700083898B438381704701894FF6F872114020
:10418000018170470A46002101894FF68F7319405B
:1041900011430181704730B504460D46294620463B
:1041A000FFF7F0FF208940F00700208130BD2DE9A6
:1041B000F04104460D4616461F46602D06D13B468B
:1041C000012231462046FFF75AFE05E03B46012218
:1041D00031462046FFF79DFE29462046FFF7D2FFD5
:1041E000208940F007002081BDE8F08130B50C4601
:1041F00000210189C9B24FF6FF7505EA0325154371
:1042000025432943018130BD2DE9F04105460E4685
:1042100017469846002443463A4631462846FFF75B
:10422000E5FF2C894FF6F870044044F007044FF680
:104230008F70044044F070042C81BDE8F081F0B52B
:1042400004460D4616461F463B4632462946204642
:10425000FFF7CCFF208940F480402081F0BD01852C
:10426000828270470A46002101884FF68F731940F9
:10427000114301807047F0B50C4615461E460021DB
:10428000002200230189028B038C4FF6F877394016
:1042900021434FF6FC473A4040F201173A434FF6AC
:1042A000DD773B404FF6FF7707EA06172F433B4386
:1042B000018102830384F0BD0A460021018B4FF681
:1042C0008F7319401143018370470A460021018B07
:1042D00048F6FF7319404FF6FF7303EA02231943B0
:1042E000018370470A460021818B4FF68F73194076
:1042F0001143818370470A460021818B48F6FF7382
:1043000019404FF6FF7303EA022319438183704774
:1043100021B1028842F08002028004E002884FF658
:104320007F731A400280704721B1828842F00402F4
:10433000828004E082884FF6FB731A4082807047C7
:1043400021B1828842F00802828004E082884FF620
:10435000F7731A408280704721B1828842F00102CF
:10436000828004E082884FF6FE731A408280704794
:104370000A460021018B4FF6F77319401143018360
:1043800070470A460021018B4FF2FF7319404FF628
:10439000FF7303EA02231943018370470A46002191
:1043A000818B4FF6F77319401143818370470A469A
:1043B0000021818B4FF2FF7319404FF6FF7303EA20
:1043C00002231943818370470A460021018B4FF66F
:1043D000FB7319401143018370470A460021018B8A
:1043E0004FF6FF3319404FF6FF7303EA02231943D8
:1043F000018370470A460021818B4FF6FB731940F9
:104400001143818370470A460021818B4FF6FF33A9
:1044100019404FF6FF7303EA022319438183704763
:104420000A460021018B4FF67F7319401143018327
:1044300070470A460021018BC1F30E014FF6FF734E
:1044400003EA02231943018370470A460021818B46
:104450004FF67F7319401143818370470A4600214C
:10446000818BC1F30E014FF6FF7303EA0223194358
:10447000818370470A460021018C4FF6FD73194075
:104480001143018470470A460021018C4FF6F773EF
:1044900019401143018470470A460021018C4FF6F0
:1044A000DF7319404FF6FF7303EA021319430184C7
:1044B00070470A460021018C4FF67F7319404FF672
:1044C000FF7303EA02131943018470470A4600216F
:1044D000018C4FF6FF5319404FF6FF7303EA022396
:1044E0001943018470470A460021018C4FF2FF7383
:1044F00019404FF6FF7303EA022319430184704702
:104500000A460021018C4DF6FF7319404FF6FF73E8
:1045100003EA023319430184704730B500230124B4
:104520008C40A3B2048C9C430484048C02FA01F5F1
:10453000ADB22C43048430BD30B5002304248C403C
:10454000A3B2048C9C430484048C02FA01F5ADB23E
:104550002C43048430BD70B5034600200024184667
:10456000183001258D40ACB21D8CA5431D8409B1C6
:10457000082909D100EB6100056825F07005056088
:104580000568154305600EE00D1FC5F34E05284470
:10459000056825F4E045056005684FF6FF7606EAF4
:1045A00002263543056070BD21B1028842F0020247
:1045B000028004E002884FF6FD731A4002807047C3
:1045C00021B1028842F00402028004E002884FF622
:1045D000FB731A400280704721B1828842F080024A
:1045E000828004E082884FF67F731A408280704791
:1045F00002884FF6F7731A40028002880A4302804D
:10460000704782884FF68F731A40828082880A43EF
:104610008280704702894FF6F8731A40028102893E
:104620000A430281704702894FF67F731A40028164
:1046300002890A43028170478184704781857047EF
:10464000818670470187704781877047A0F84010C6
:10465000704702884FF6FF431A40028002880A43DF
:10466000028070470146888E70470146088F704768
:104670000146888F70470146B1F8400070470146F7
:10468000888C70470146088D704702460020138AC7
:104690000B400BB1012000E000207047CA430282AA
:1046A000704730B50246002000230024158A05EA31
:1046B0000103958905EA010413B10CB1012000E062
:1046C000002030BDCA430282704700000CB50020B4
:1046D000019000906C48006840F480306A4908609E
:1046E00000BF6948006800F4003000900198401C49
:1046F0000190009818B90198B0F5A06FF1D1624807
:10470000006800F4003010B10120009001E00020AA
:1047100000900098012843D15C48006840F01000E8
:104720005A4908600846006820F0030008600846FF
:10473000006840F0020008605348406852494860F1
:104740000846406848600846406840F48060486019
:104750000846406820F47C1048600846406840F4F1
:10476000E81048600846006840F08070086000BFAC
:104770004548006800F000700028F9D042484068C1
:1047800020F00300404948600846406840F00200BD
:10479000486000BF3C48406800F00C000828F9D190
:1047A0000CBD10B5FFF792FF10BD10B5364800687C
:1047B00040F0010034490860084640683449084028
:1047C0003149486008460068324908402E4908606F
:1047D0000846006820F4802008600846406820F4FD
:1047E000FE0048604FF41F008860FFF7DAFF4FF0CB
:1047F00000602949086010BD10B50021002000228A
:10480000214B5B6803F00C0121B1042906D0082973
:1048100028D107E0214B224C236027E01F4B204C7E
:10482000236023E0184B5B6803F47010164B5B6841
:1048300003F48032022303EB904022B9194B434327
:10484000174C23600DE0104B5B6803F4003323B179
:10485000144B4343124C236003E0104B4343104C72
:10486000236003E00D4B0E4C236000BF00BF064BDE
:104870005B68C3F303130C4CE15C094B1B68CB4032
:10488000074C236010BD00000010024000200240D1
:104890000000FFF8FFFFF6FE08ED00E000127A00CE
:1048A0005C0B002000093D00600B002030B5054680
:1048B0002A460B4612F8010B13F8014B08B1A0422F
:1048C000F8D01CB1002802D06D1CF1E7284630BD9D
:1048D000421C10F8011B0029FBD1801A704700F020
:1048E000004230F000400AD0C10D01F56071C0F304
:1048F000160042EA0151C2084007114370470020E8
:104900000146704730B50B460146002020220124A5
:1049100009E021FA02F59D4205D303FA02F5491B8D
:1049200004FA02F52844151EA2F10102F1DC30BDA3
:104930002DE9F05F0546002092469B4688460646D4
:10494000814640241BE0284641464746224600F067
:10495000FAF953465A46C01A914110D311461846E7
:10496000224600F0E1F92D1A67EB01084F46224676
:104970000120002100F0D8F917EB00094E41201E5C
:10498000A4F10104DFDC484631462A464346BDE82F
:10499000F09F2DE9FE4F804681EA0300C00F0C46D0
:1049A000009021F0004123F00045B8EB0200A9413E
:1049B00005D24046214690461C460B46024623F04F
:1049C0000040104347D0270DC7F30A00C3F30A5134
:1049D0000290401A019040286BDAC3F3130040F4B0
:1049E000801B0098924620B10023D2EB030A63EBB0
:1049F0000B0B01985946C0F14002504600F094F963
:104A000006460D4650465946019A00F0ACF910EBA7
:104A100008006141002487EA115284EAE7731A43CF
:104A200040D0009A62B3019A012A4FEA075215DC7E
:104A3000001B61EB02014FF0004202EA0752CDE990
:104A40000042001C41F5801132462B4600F0ACF9C3
:104A500003B0BDE8F08F40462146F9E7001B61EB4B
:104A60000201001C41F5801300185B412018A2F5DB
:104A7000001747EB030140EAD570B6196D4111E00C
:104A80006D084FEA360645EAC0754FEA0752001B2B
:104A900061EB0201001C41F5801149084FEA30002A
:104AA0000019514132462B4603B0BDE8F04F00F0EB
:104AB0006CB90098012240000023D0EB020263EBA6
:104AC000E073009821464FEAE074B8EB000061EB18
:104AD0000401E9E783F000435BE781F0004158E718
:104AE0002DE9FE4F81EA030404F0004421F0004167
:104AF00000944FF0000B23F0004350EA01045ED015
:104B000052EA03045BD0C3F30A54C1F30A552C44A0
:104B1000A4F2F3340194A0FB0254C1F3130141F455
:104B20008011C3F3130343F4801301FB024400FB21
:104B3000034E840A970A44EA815447EA8357A4FB48
:104B4000076802958D0A05FB07854FEA932C04FB45
:104B50000C542705029D4FEA065847EA1637B5EB75
:104B600008056EEB070C870E920E47EA811742EAA2
:104B70008312A7FB0201B6EB0B0164EB00042B0DC3
:104B800043EA0C335E1844EB1C50DA465146E7FB0F
:104B90000201C5F313044FEA0B3343EA14534FEAFF
:104BA0000432019C43EA0603A4F10C040294009C25
:104BB000CDE900B400F0F8F803B0BDE8F08F0020B4
:104BC0000146F9E72DE9F04D81EA030404F0004BBA
:104BD00021F0004514464FF0000A23F0004150EA4E
:104BE000050220D054EA01021DD0C5F30A5702463F
:104BF000C5F31303C1F31300C1F30A5640F4801543
:104C000043F48013A7EB0608101BD64608F2FD38C4
:104C100073EB050002D308F1010801E092185B4133
:104C2000B8F1000F03DA00200146BDE8F08D002046
:104C30004FF48011064684460EE0171B73EB050700
:104C400005D3121B63EB050306434CEA010C49082C
:104C50004FEA300092185B4150EA0107EDD152EA69
:104C6000030012D082EA040083EA0501084305D05C
:104C7000101BAB4106D20122002306E000224FF0B8
:104C8000004302E06FF0010253101AEB06004CEBF8
:104C9000085110EB0A0041EB0B01BDE8F04D00F0AC
:104CA00074B8C1F30A52C1F3130140F2FF3341F467
:104CB00080119A4202DA00200146704740F23343E5
:104CC0009A42A2F2334202DC524200F03CB800F0B9
:104CD0002BB8000030B5041E71F1000404DB4FF066
:104CE0000044404264EB0101141E73F1000405DB33
:104CF0001C464FF00043524263EB0403994208BF45
:104D0000904230BD064C074D06E0E06840F00103DC
:104D100094E8070098471034AC42F6D3FBF7EAF961
:104D2000C0600008E0600008202A04DB203A00FA96
:104D300002F1002070479140C2F1200320FA03F3F2
:104D4000194390407047202A04DB203A21FA02F0F0
:104D50000021704721FA02F3D040C2F120029140B5
:104D6000084319467047202A06DBCB17203A41FA40
:104D700002F043EAE07306E041FA02F3D040C2F1E8
:104D80002002914008431946704710B5141E73F174
:104D9000000408DA401C41F1000192185B411A43FB
:104DA00001D120F0010010BD2DE9F04D92469B4647
:104DB00011B1B1FA81F202E0B0FA80F220329046ED
:104DC000FFF7B2FF04460F4640EA0A0041EA0B0132
:104DD00053465A46084313D0114653EA010019D0EE
:104DE000C8F140025046FFF7AEFF05460E4650465A
:104DF00059464246FFF798FF084305D0012004E0DA
:104E000020463946BDE8F08D0020054346EAE076AD
:104E10002C4337430A986305E40AA0EB08000022FC
:104E2000FD0A44EA47540A3002D500200146E9E76A
:104E3000010510196941DDE9084500196941BDE81E
:104E4000F04DA2E770B58D1810F8014B14F0030275
:104E500001D110F8012B231106D110F8013B03E01A
:104E600010F8016B01F8016B521EF9D1ABB110F8CB
:104E7000012B04F00C048A1A0C2C03D0A2EB841230
:104E80009B1C08E010F8014BA2EB0422F8E712F893
:104E9000014B01F8014B5B1EF9D5A942D4D3002088
:104EA00070BD00000FB4054B10B503A9044A029869
:104EB00000F000F910BC5DF814FB0000350B000891
:104EC000600000200FB4084B10B504A902AA039893
:104ED00000F0F0F8044602A9002000F082FC204611
:104EE00010BC5DF814FB0000E357000837B514460A
:104EF0000846064B6A46214600F0DCF8044669463F
:104F0000002000F06EFC20463EBD0000E357000884
:104F100002E008C8121F08C1002AFAD17047704782
:104F2000002001E001C1121F002AFBD170470000E0
:104F30002DE9FF5F82B00021DDE90430020DDDF8CC
:104F400040B0034318D044F61050A2F2FF3242435F
:104F50001514119801281FD0A5EB0B00401C5FEA27
:104F6000000A4FF000064E4FDFF83891B046504629
:104F700015D5CAF1000413E0119801244AA30128B1
:104F800001D16FEA0B010298119AC0E90031C0E922
:104F9000024206B0BDE8F09FCBF10000DFE7044617
:104FA0000021404A491842EB0450CDE9001012E0BC
:104FB000E00707D032463B4640464946FFF790FDA2
:104FC0008046894632463B4610461946FFF788FD23
:104FD00006460F466410002CEAD1DDE90401DDE944
:104FE0000023BAF1000F06DAFFF77AFD42464B467E
:104FF000FFF776FD05E0FFF7E5FD42464B46FFF77C
:10500000E1FD04460E460022284BFFF763FE03D85D
:105010004FF0FF30014607E00022254B2046314685
:10502000FFF7B7FCFFF73DFE102409E0002C0ADB78
:105030000A220023FFF77CFC039B30321A55641EC2
:1050400050EA0102F2D1641C039AC4F11103144422
:10505000119A012A03D0012208430DD10AE0084326
:1050600004D000204FF0110B119072E7A3EB0B0559
:105070006D1E0DE05B4504DD4FF0000205F10105FA
:1050800004E003DA4FF00002A5F10105002AECD09C
:1050900002981199C0E90231C0E9004579E70000A2
:1050A000000014400000F03F300000000000F0431A
:1050B0000000E03F2DE9FF4F95B09B46894606462C
:1050C00000250FE2252877D100242746F84A012140
:1050D000059400E0044316F8013F203B01FA03F079
:1050E0001042F7D130782A2811D06FF02F03307892
:1050F000A0F13002092A16D8059A44F0020402EB06
:10510000820203EB42021044761C0590EFE759F847
:10511000042B0592002A03DA504244F4005405900F
:1051200044F00204761C30782E2816D116F8010FB0
:1051300044F004042A280DD06FF02F023078A0F13B
:105140003003092B09D807EB870302EB4303C71889
:10515000761CF3E759F8047B761C30786C280FD066
:1051600006DC4C2817D068280DD06A2814D104E03A
:10517000742810D07A280FD10DE044F400140AE00E
:1051800044F4801401E044F440147278824202D165
:1051900004F58014761C761C307866280BD013DC5E
:1051A000582877D009DC002875D04528F6D0462845
:1051B000F4D047281AD19DE118E0632835D064283F
:1051C00079D0652812D195E1702873D008DC672862
:1051D000F1D069286FD06E280DD06F2806D1B5E0C8
:1051E00073282CD0752875D0782874D05A46179912
:1051F00090476D1C75E1C4F30250022809D00328C2
:105200000DD0D9F8001004280DD00D6009F1040963
:1052100067E1D9F80010EA17C1E90052F6E7D9F8BA
:1052200000100D80F2E70D70F0E719F8041B8DF8FF
:10523000001000208DF80100EA46012003E059F833
:1052400004AB4FF0FF3061074FF0000102D40DE0D6
:1052500008F101018846B9420FDA8045F8DB1AF8F7
:1052600008100029F4D108E008F1010188468142C4
:10527000FADB1AF808100029F6D105985B46A0EB76
:10528000080721463846179A00F094FA284400EBA4
:10529000080507E04DE029E10DE01AF8010B5A4638
:1052A00017999047B8F10108F7D25B462146384676
:1052B000179A13E142E00A220092C4F302524FF01F
:1052C000000A022A08D059F804CB032A4FEAEC71ED
:1052D0000AD00DE029E02AE009F1070121F00702D8
:1052E000F2E802C1914609E00FFA8CFC4FEAEC713A
:1052F000042A03D14FFA8CFC4FEAEC71002907DA3B
:105300000A460021DCF1000C61EB02012D2202E0D3
:10531000220504D52B228DF80420012203E0E207A8
:1053200001D02022F7E7904659E00A2102E010223E
:105330000DE010214FF0000A00910BE010224FF019
:10534000000A44F004040827009203E008224FF00A
:10535000000A0092C4F30252022A05D059F804CB85
:105360000021032A08D009E009F1070121F0070212
:10537000F2E802C1914605E01FFA8CFC042A01D133
:105380000CF0FF0C4FF00008220728D5702806D03B
:10539000009B83F0100353EA0A0305D00EE040227D
:1053A0008DF80420012208E05CEA010206D03022D8
:1053B0008DF804208DF8050002229046009B83F0B2
:1053C000080353EA0A030AD15CEA010201D1620729
:1053D00005D530228DF804204FF001087F1E582893
:1053E00004D034A003900EA802900DE036A0F9E797
:1053F00053466046009AFFF79BFA84460398825C06
:105400000298401E029002705CEA0100F0D10298FE
:1054100006A9081A00F1200A600702D524F4803496
:1054200000E00127574502DDA7EB0A0000E000205D
:1054300000EB0A01009005984144401A0590E003F2
:1054400006D45B462146179A059800F0B3F9054447
:10545000002706E001A85A46C05D179990476D1CC9
:105460007F1C4745F6DBE0030CD55B462146179AC7
:10547000059800F09FF9054404E030205A4617993A
:1054800090476D1C0099481E00900029F5DC08E04B
:10549000029802995A460078491C02911799904740
:1054A0006D1CBAF10001AAF1010AF1DC65E100000E
:1054B00009280100303132333435363738396162EA
:1054C00063646566000000003031323334353637AE
:1054D00038394142434445460000000000F058F985
:1054E0000544761C307800287FF4ECAD19B02846CE
:1054F000BDE8F08F620700D4062709F1070222F009
:10550000070CFCE80223E14603F000485FEA080CC0
:1055100002D00FF2702C0DE05FEA045C02D50FF2AE
:10552000682C07E05FEAC47C02D00FF2602C01E037
:10553000AFF2700C4FF0FF3823F00043CDF850C0AD
:1055400065280CD006DC452809D046281DD0472800
:105550003DD13DE0662818D067287ED138E0002193
:10556000112F01DB112000E0781CCDE9000106A914
:105570000EA8FFF7DDFCDDE90F010E9A0391002173
:10558000009207F1010A04914DE04FF000400097AE
:10559000CDE9011006A90EA8FFF7CAFCDDE90F024C
:1055A00003920E9B11990022DDF80CA00093049247
:1055B00011B9791C00EB010AB7EB0A0004D4C0F161
:1055C000FF3007F1010A0490AAEB0700019044E0C4
:1055D000012F00DA01270021112F01DD112000E049
:1055E0003846CDE9000106A90EA8FFF7A1FCDDE9C8
:1055F0000F010E9A0391002104910092BA462107EF
:105600000CD40399514500DA8A46BAF1010F05DD41
:10561000009AAAF10101515C302908D0B84202DA9F
:1056200010F1040F06DA0121CDE9011015E0AAF10D
:105630000101E9E7002805DC049901440491AAEB83
:10564000000102E0411C514500DD8A460499401AE0
:10565000401C01904FF000400290200704D40198B4
:10566000504501DBCDF8048000208DF84F000298F2
:105670000DF14F07B0F1004F25D02B200E9002986E
:105680004FF0020800280CDA404202902D200E90C4
:1056900007E00A210298FFF735F93031029007F848
:1056A000011DB8F10001A8F10108F2DC0298002800
:1056B000EFD1791E0E980870307800F0200040F08D
:1056C000450007F8020D12A8C01B00F10708149846
:1056D000007800B1012000EB0A01019801EBE071B4
:1056E00005984144401A401E0590E00306D45B46ED
:1056F0002146179A059800F05DF805441498007843
:1057000018B15A46179990476D1CE00324D55B46A3
:105710002146179A059800F04DF805441CE00498BE
:10572000002807DBDDE90301884203DD0098405CC7
:10573000179901E0179930205A469047049805F1CF
:105740000105401C04900198401E019004D12E20B8
:105750005A46179990476D1CBAF10001AAF1010A47
:10576000DDDC05E017F8010B5A46179990476D1CD0
:10577000B8F10001A8F10108F4DC5B462146179A54
:105780000598ABE62D0000002B0000002000000073
:105790002DE9F041044600251E461746880404D42E
:1057A00005E039462020B0476D1C641EF9D5284617
:1057B000BDE8F0812DE9F041044600251E469046E3
:1057C000C80301D5302700E02027880404D505E070
:1057D00041463846B0476D1C641EF9D52846BDE8E1
:1057E000F0810A68531C0B601070704710B50028D8
:1057F00021D0114B0022001F196803E0814203D819
:105800000A4649680029F9D152B11368841A9C42AA
:1058100004D1006818441060104602E0506000E0B7
:10582000186039B102680B1A934203D10B681A440D
:1058300002604968416010BD700B0020F0B50B306C
:10584000154D20F007010024144A0FE003688B4235
:105850000BD38B4205D95E1A43184768C3E900672A
:1058600000E04368136002C004E0021D10680028D5
:10587000ECD12046002802D1286808B10020F0BDF4
:10588000064A07481060074A121A22F00702C0E9C8
:10589000002401202860D7E7740B0020700B002043
:1058A000241400202016002000000000000000004A
:1058B000002F000000000700070000147F147F1471
:1058C00000242A7F2A1200626408132300364955F7
:1058D000225000000503000000001C2241000000CF
:1058E00041221C000014083E08140008083E080865
:1058F000000000A0600000080808080800006060C0
:105900000000002010080402003E5149453E0000FE
:10591000427F4000004261514946002141454B31E0
:10592000001814127F10002745454539003C4A49AC
:10593000493000017109050300364949493600061E
:105940004949291E00003636000000005636000086
:105950000008142241000014141414140000412201
:10596000140800020151090600324959513E007CD9
:105970001211127C007F49494936003E41414122C3
:10598000007F4141221C007F49494941007F0909AC
:105990000901003E4149497A007F0808087F00005C
:1059A000417F4100002040413F01007F0814224117
:1059B000007F40404040007F020C027F007F0408CF
:1059C000107F003E4141413E007F09090906003E2B
:1059D0004151215E007F0919294600464949493154
:1059E0000001017F0101003F4040403F001F204077
:1059F000201F003F4038403F006314081463000735
:105A00000870080700615149454300007F4141008B
:105A100000552A552A55000041417F00000402012B
:105A20000204004040404040000001020400002009
:105A300054545478007F4844443800384444442047
:105A400000384444487F00385454541800087E09F4
:105A500001020018A4A4A47C007F080404780000BC
:105A6000447D4000004080847D00007F1028440079
:105A70000000417F4000007C04180478007C08048A
:105A8000047800384444443800FC242424180018C6
:105A9000242418FC007C08040408004854545420B2
:105AA00000043F444020003C4040207C001C20403B
:105AB000201C003C4030403C004428102844001C7E
:105AC000A0A0A07C004464544C4414141414141476
:105AD00000000000000000000000000000000000C6
